{
  "_format": "hh-sol-artifact-1",
  "contractName": "PlusOne",
  "sourceName": "contracts/PlusOne.sol",
  "abi": [
    {
      "inputs": [],
      "name": "decrease",
      "outputs": [],
      "stateMutability": "payable",
      "type": "function"
    },
    {
      "inputs": [],
      "name": "getTheCurrentCount",
      "outputs": [
        {
          "internalType": "int256",
          "name": "",
          "type": "int256"
        }
      ],
      "stateMutability": "view",
      "type": "function"
    },
    {
      "inputs": [],
      "name": "increase",
      "outputs": [],
      "stateMutability": "payable",
      "type": "function"
    }
  ],
  "bytecode": "0x60806040526000805534801561001457600080fd5b506101d7806100246000396000f3fe6080604052600436106100345760003560e01c8063cb47572914610039578063d732d95514610064578063e8927fbc1461006e575b600080fd5b34801561004557600080fd5b5061004e610078565b60405161005b91906100d0565b60405180910390f35b61006c610081565b005b61007661009c565b005b60008054905090565b6001600080828254610093919061011a565b92505081905550565b60016000808282546100ae919061015d565b92505081905550565b6000819050919050565b6100ca816100b7565b82525050565b60006020820190506100e560008301846100c1565b92915050565b7f4e487b7100000000000000000000000000000000000000000000000000000000600052601160045260246000fd5b6000610125826100b7565b9150610130836100b7565b9250828203905081811260008412168282136000851215161715610157576101566100eb565b5b92915050565b6000610168826100b7565b9150610173836100b7565b92508282019050828112156000831216838212600084121516171561019b5761019a6100eb565b5b9291505056fea264697066735822122039bcba6a1e872deb5e7bbffaea023887056fd34fe770b05eed608f73de28ff8264736f6c63430008180033",
  "linkReferences": {},
  "deployedLinkReferences": {}
}